:020000040800F2
:1000000000000120C50200086D0C0008710C0008FA
:10001000750C0008790C00087D0C00080000000039
:10002000000000000000000000000000810C00083B
:10003000850C000800000000890C0008E50300089A
:10004000F9090008F9090008F9090008F909000888
:10005000F9090008F9090008F9090008F909000878
:10006000F9090008F9090008F9090008F909000868
:10007000F9090008F9090008F9090008F909000858
:10008000F9090008F9090008F90900080000000052
:10009000000000000000000000000000F909000856
:1000A000F9090008F9090008F9090008F909000828
:1000B000F9090008F9090008F9090008F909000818
:1000C000F9090008F9090008F9090008F909000808
:1000D000F9090008F9090008F90900080000000002
:1000E000F9090008F9090008F909000800000000F2
:1000F000000000000000000000000000F9090008F6
:1001000000000000F9090008F9090008F9090008D1
:1001100000000000000000000000000000000000DF
:10012000F9090008F9090008F9090008F9090008A7
:10013000F9090008000000000000000000000000B5
:10014000000000000000000000000000F9090008A5
:10015000F9090008F9090008F9090008F909000877
:10016000F9090008F909000800000000000000007B
:10017000000000000000000000000000000000007F
:1001800000000000F9090008000000000000000065
:10019000F909000800B583B000F096FB384B394AE6
:1001A0001360394A136039490CE00A684B6801F161
:1001B0000C04886803E01168196004330432984223
:1001C000F9D82146324B9942EFD32E4B1A68314B66
:1001D0009A4204D12C4B1A682F4B9A4200D0FEE76A
:1001E000274B2E4A13602E4A13602E4B0AE0194605
:1001F00051F8082B5B6802E00020106004329A423C
:10020000FAD30B46284A9342F1D3244B1B6813B907
:10021000234B1B6803B1FEE700F062FB694601A8AF
:1002200000F0E2FA214C224B1C1BA410002504E034
:100230001E4B53F8253098470135AC42F8DC1D4C75
:100240001D4B1C1BA410002504E01A4B53F825304D
:1002500098470135AC42F8DC0099019800F0E0FCC9
:100260000546164C164B1C1BA41004E0013C134B16
:1002700053F824309847002CF8DC284600F086FA22
:10028000BABADECA0000002084000020F40300088F
:100290000C040008785634123254769888000020F6
:1002A000200100200C0400081C0400081C040008A5
:1002B0001C0400081C0400081C0400081C0400089E
:1002C0001C04000808B5FFF765FF00BF00BEFEE78D
:1002D0001EF0040F0CBFEFF30880EFF309807146A6
:1002E000414A10472DE9F04182B004468846134B3D
:1002F0005E6B9F6B9D6A1B6B13F0020F0DD00F4B53
:10030000DB6A002B09DA4BF6AB6100F065FB20B12C
:100310004FF00042094BDA620CE0094800F076FA2F
:10032000CDF800803B4632462946204600F0DCFAF4
:1003300000BEFEE702B0BDE8F08100BF00ED00E0C6
:10034000DC17000800BEFEE71EF0040F0CBFEFF341
:100350000880EFF309807146244A10472DE9F041E7
:1003600082B004468846084B5E6B9F6B9D6A0748C7
:1003700000F04CFACDF800803B4632462946204634
:1003800000F0B2FA00BEFEE700ED00E0EC17000856
:100390001EF0040F0CBFEFF30880EFF309807146E5
:1003A000134A10472DE9F04182B004468846084BB5
:1003B0005E6B9F6B9D6A074800F028FACDF80080BD
:1003C0003B4632462946204600F08EFA00BEFEE744
:1003D00000ED00E0F817000800BEFEE700BEFEE7F3
:1003E00000BEFEE770470000E50200085D0300085C
:0403F000A503000859
:1003F400A01800080000002088000020A0180008B1
:1004040000000010000000108800002024010020DB
:080414000000001000000010C0
:1004200010B50446012803D9B621034800F0E4F9C9
:10043000024B1C6010BD00BF9015000820000E424A
:100440000E4B1A6842F001021A60002199601A6886
:1004500022F0A85222F410221A60094A5A60094A6E
:10046000C3F8842002F18062C3F888201A6822F45D
:1004700080221A60D960C3F88C107047003802409F
:10048000103000240030002010B50446012804D9A3
:100490004FF4D371024800F0AFF9024B1C6010BD5D
:1004A000BC150008800E474210B50446B0F5807FA9
:1004B0007ED0B0F5007F7BD0484B984278D003F5D2
:1004C0008033984274D003F58033984270D003F59E
:1004D000803398426CD003F58033984268D003F59E
:1004E0008033984264D003F58033984260D003F59E
:1004F000803398425CD003F58033984258D003F59E
:100500008033984254D003F58033984250D003F59D
:10051000803398424CD003F58033984248D003F59D
:100520008033984244D003F58033984240D003F59D
:10053000803398423CD003F58033984238D003F59D
:100540008033984234D003F58033984230D003F59D
:10055000803398422CD003F58033984228D003F59D
:100560008033984224D003F58033984220D003F59D
:10057000803398421CD003F58033984218D003F59D
:100580008033984214D003F58033984210D003F59D
:10059000803398420CD003F58033984208D003F59D
:1005A0008033984204D040F27E510D4800F024F987
:1005B00004F44073B3F5407F09D10A498B6823F4F2
:1005C000F81224F0704323F4407313438B60054BFF
:1005D0001A6FC4F30B0414431C6710BD0003020020
:1005E000BC1500080038024010B50446012804D9A3
:1005F00040F29C51024800F0FFF8024B1C6010BD15
:10060000BC1500083C0E474238B504460D4610F4B0
:10061000585F00D120B940F277710B4800F0ECF838
:10062000012D04D94FF4EF61074800F0E5F825B13A
:10063000064A136C1C43146438BD044A136C23EA45
:100640000404146438BD00BFBC1500080038024023
:1006500010B5044621281ED031281CD039281AD0C4
:10066000412818D0612816D0792814D07A2812D0C1
:100670007B2810D07C280ED07D280CD07E280AD074
:100680007F2808D03B2806D03D2804D040F64221E0
:100690000D4800F0B1F86309012B02D10B4B1B6828
:1006A00006E0022B02D1094B1B6F01E0074B5B6F89
:1006B00004F01F0423FA04F414F0010F01D0012008
:1006C00010BD002010BD00BFBC150008003802405E
:1006D00082B000230193114BCA225A6253225A62FC
:1006E000DA6822F0A002DA600C4BDB6803F020022B
:1006F000019B01330193019BB3F5003F01D0002A18
:10070000F2D0064BDB6813F0200F01D0012000E08F
:100710000020FF22014B5A6202B0704700280040BF
:1007200030B583B004460D4600230193132804D945
:1007300040F60411064800F05FF8064B019301985B
:1007400000EB84000190019B1D6003B030BD00BF31
:10075000E81500085028004010B582B00446002378
:100760000193132804D940F61911064800F044F803
:10077000054B0193019800EB84000190019B1868E0
:1007800002B010BDE815000850280040FEE700BF89
:1007900008B5034800F052F80120FFF7F7FF00BF4B
:1007A0001416000808B50D4B1B6813B90C4A0B4B07
:1007B0001A600A4B1A68C31C23F003031344094947
:1007C0008B4206D900F062FA0C2303604FF0FF3031
:1007D00008BD02490B60104608BD00BF8C00002018
:1007E0002401002000FC002001230360014B0B606A
:1007F000704700BF0400002008B50A4601460248C1
:1008000000F004F8FFF7C4FF681600080FB400B545
:1008100083B004AB53F8042B01938021064800F009
:100820006FFA002803DD0146034800F049F803B0E1
:100830005DF804EB04B070479400002010B5044646
:1008400000F02AFA0146204600F03AF80121024859
:1008500000F036F810BD00BF581700082DE9F0432E
:1008600085B004460F46435C13BB04252846214649
:10087000ABBE04461FE03546102E28BF10250023CE
:1008800006E014F8011B04AA1A4402F8101C0133F4
:10089000AB42F6D304AA1344002203F8102CE94615
:1008A0004FF0040840464946ABBE8046761B00E048
:1008B0000E46002EDFD1384605B0BDE8F08300BFFC
:1008C00008B5FFF7CBFF08BD08B500F0D1F8024B23
:1008D000024A9A6008BD00BF00ED00E00000000879
:1008E00008B500F0E7F808BDF8B504460D46174610
:1008F0001E462648FFF78AFF21682548FFF786FF36
:1009000061682448FFF782FFA1682348FFF77EFF54
:10091000E1682248FFF77AFF21692148FFF776FF57
:1009200061692048FFF772FFA1691F48FFF76EFF5A
:10093000E1691E48FFF76AFF1D48FFF767FF294678
:100940001C48FFF763FF1C4CE16A1C48FFF75EFF81
:10095000216B1B48FFF75AFFE16B1A48FFF756FF60
:1009600015F0800F03D039461748FFF74FFF15F4F5
:10097000004F03D031461548FFF748FF1448FFF7F2
:1009800045FF06991348FFF741FFF8BDC016000860
:10099000D0160008E0160008F0160008001700083E
:1009A000101700082017000830170008401700082B
:1009B000501700085C17000800ED00E06C170008F5
:1009C0007C1700088C1700089C170008AC1700085B
:1009D000BC170008C417000883691A888A4207D127
:1009E0000268033A012A05D8023383610120704767
:1009F0000020704700207047FEE70000184B1A6C7B
:100A000042F080521A6417490A6842F440420A6070
:100A10009A689A609A689A609A6842F480529A60DA
:100A2000114A5A601A6842F080721A600C4B1B68B7
:100A300013F0007FFAD040F202620C4B1A60A3F56B
:100A400080639A6822F003029A609A6842F0020278
:100A50009A60034B9B6803F00C03082BF9D1704795
:100A6000003802400070004010540107003C024072
:100A700008B50D4B1A6842F001021A600021996016
:100A80001A6822F0847222F480321A60074A5A608F
:100A90001A6822F480221A60D960FFF7AFFF4FF086
:100AA0000062034B9A6008BD0038024010300024F9
:100AB00000ED00E0234B9B6803F00C03042B07D0F0
:100AC000082B09D0002B2DD11F4A204B1A602CE097
:100AD0001F4A1E4B1A6028E01A4B5A685B6803F0E5
:100AE0003F0312F4800F09D0194AB2FBF3F2154B01
:100AF0005B68C3F3881303FB02F208E0124AB2FBFF
:100B0000F3F3104A5168C1F3881101FB03F20D4B56
:100B10005B68C3F3014301335B00B2FBF3F30B4AA1
:100B2000136002E0084A094B1A60064B9B68C3F346
:100B30000313084AD35CDAB204490B68D3400B6054
:100B4000704700BF003802400024F4001C00002061
:100B500000127A000C00002008B501210020FFF7E8
:100B6000DFFDBFF34F8F0549CA6802F4E062044B12
:100B70001343CB60BFF34F8FFEE700BF00ED00E0F3
:100B80000400FA0508B501214FF08050FFF73CFD45
:100B90000120FFF745FC0120FFF776FC6120FFF7FD
:100BA00057FD0028FAD04FF40070FFF77DFC0120BC
:100BB000FFF71AFDFFF78CFD08BD00BF08B5002147
:100BC0004FF08050FFF720FD0020FFF729FC0020A8
:100BD000FFF75AFC0020FFF707FD08BD08B5FFF737
:100BE000D1FF0020FFF7B8FD012801D0002300E06D
:100BF00001237BB100210846FFF792FDFFF720FC9F
:100C0000FFF7DCFF044B1B6883F30888034B98470E
:100C1000012008BD002008BD0000FF1F1000FF1FBD
:100C200010B50D4B1B6883F308880C4B9847FFF7F2
:100C3000D5FF10B90A48FFF7E9FD0A4C00E0013C76
:100C4000002CFCD1FFF788FF0028F9D10648FFF7F8
:100C5000DDFD044CF4E700BF0000FF1F0400FF1F90
:100C6000081800088096980038180008704700BFE0
:100C7000FEE700BFFEE700BFFEE700BFFEE700BFE4
:100C8000704700BF704700BF704700BF014B186836
:100C9000704700BF80000020034613F8012B002A94
:100CA000FBD1181A0138704730B5141E05469BB0A9
:100CB000184604DA8B232B604FF0FF301DE04FF411
:100CC0000273ADF80C3014BF04F1FF3323460293D6
:100CD00005934FF6FF7300910491ADF80E30024674
:100CE0001E9B6946284600F073F8431CBCBF8B234B
:100CF0002B6014B1009B00221A701BB030BD0000A5
:100D000007B5009313460A46014603480068FFF7FB
:100D1000CBFF03B05DF804FB800000202DE9F04715
:100D20008E689E4282460C46914698463ED88A89F5
:100D300012F4906F3AD0256809696F1A6569022329
:100D400005EB450595FBF3F57B1C43449D4238BFFD
:100D50001D4653050FD5294600F086FB064698B17F
:100D60003A46216900F014FBA38923F4906343F011
:100D70008003A38113E02A4600F0CAFB064670B93F
:100D80002169504600F02AFB0C23CAF80030A389E1
:100D900043F04003A3814FF0FF30BDE8F0872661A8
:100DA00065613E44ED1B2660A5604646464528BF6A
:100DB000464632464946206800F0F5FAA3689B1B78
:100DC000A36023681E4426600020BDE8F087000071
:100DD0002DE9F04F9DB0804603938B891C060D468C
:100DE00016460DD50B695BB9402100F03DFB28602C
:100DF000286118B90C23C8F80030CDE040236B619E
:100E00000023099320238DF82930DFF89CB130238B
:100E10008DF82A3037463C4614F8013B1BB9B7EB36
:100E2000060910D003E0252BF9D02746F3E74B46FF
:100E3000324629464046FFF771FF013000F0A78097
:100E4000099B4B4409933B78002B00F0A0800023C2
:100E50004FF0FF3204930793059206938DF85330B9
:100E60001A930126052221784E4800F041FA671CAA
:100E7000049B38B14B4A801A06FA00F018430490DC
:100E80003C46EFE7D90644BF20228DF853201A07CD
:100E900044BF2B228DF8532022782A2A03D0079AA8
:100EA00000210A200BE0039A111D12680391002A09
:100EB00010DA524243F00200079204900BE02746FA
:100EC00001343B78303B092B03D800FB023201216F
:100ED000F5E701B107923B782E2B1ED17B782A2BA8
:100EE0000AD1039B1A1D1B680392002BB8BF4FF059
:100EF000FF330237059310E000230593781C194651
:100F00000A24074601303A78303A092A03D804FB0C
:100F100001210123F5E703B1059103223978224825
:100F200000F0E6F940B14023CBEB000003FA00F0FB
:100F3000049B18430490013739781C488DF8281019
:100F400006227E1C00F0D4F988B1194B33B9039BFB
:100F5000073323F007030833039314E003AB009334
:100F60002A46144B04A94046AFF3008007E003ABC8
:100F700000932A460F4B04A9404600F093F8B0F1C5
:100F8000FF3F824603D0099B5344099342E7AB8954
:100F90005B0601D4099801E04FF0FF301DB0BDE8B9
:100FA000F08F00BF6A180008701800087418000855
:100FB000000000001D0D00082DE9F04791461F4676
:100FC0000A698B68DDF820809342B8BF1346C9F8E0
:100FD000003091F8432006460C4612B10133C9F89F
:100FE00000302368990642BFD9F800300233C9F8AF
:100FF0000030256815F0060510D104F1190A07E044
:101000000123524639463046C04701301AD00135D7
:10101000E368D9F800209B1A9D42F1DB94F8433035
:101020002268003318BF012392060FD5E1185A1C1D
:10103000302081F84300224494F8451082F8431090
:10104000023303E04FF0FF30BDE8F08704F14302C4
:1010500039463046C0470130F4D02268D9F80050F4
:10106000E36802F00602042A08BF5D1B2269A36838
:101070000CBF25EAE57500259342C4BF9B1AED1805
:101080004FF000091A344D4509D001232246394654
:101090003046C0470130D5D009F10109F3E70020FF
:1010A000BDE8F0872DE9F04317460A7E85B06E2A29
:1010B000984606460C460C9B01F1430E00F0AE80AC
:1010C00011D8632A22D009D8002A00F0BB80582A00
:1010D00040F0CA8081F84520834955E0642A1ED03B
:1010E000692A1CD0C0E0732A00F0B08009D86F2AAA
:1010F0002ED0702A40F0B8800A6842F020020A60C0
:101100003EE0752A24D0782A3AD0ADE01A6801F181
:101110004205111D1960136884F84230A8E0216867
:101120001A6811F0800F02D0111D196008E011F04B
:10113000400F02F10401196002D0B2F9003000E062
:101140001368002B3CDA2D225B4284F8432037E001
:1011500021681A6811F0800F02D0111D196007E094
:1011600011F0400F02F10401196001D0138800E072
:101170001368227E5C496F2A14BF0A2208221BE0F2
:1011800078225A4984F845202268186812F0800FA6
:1011900000F104051D6003D1550601D5038800E068
:1011A0000368D00744BF42F0200222601BB92268C6
:1011B00022F0200222601022002084F8430001E087
:1011C00049490A226568A560002D08DB206820F0E7
:1011D000040020602BB9002D7DD175460CE0002B5A
:1011E00079D07546B3FBF2F002FB1033CB5C05F807
:1011F000013D03460028F5D1082A0BD12368DA0700
:1012000008D5236962689A42DEBF302305F8013CA5
:1012100005F1FF35C5EB0E0323612EE008681A685F
:10122000496910F0800F03D0101D1860136808E0A2
:1012300010F0400F02F104001860136801D019800B
:1012400000E0196000232361754616E01A68111D3D
:101250001960156862680021284600F049F808B155
:10126000401B6060636804E004F1420584F842209A
:1012700001232361002384F84330CDF800803B46EE
:1012800003AA21463046FFF797FE013002D14FF006
:10129000FF3026E023692A4639463046C0470130F0
:1012A000F5D023689B0710D5002504F1190907E044
:1012B00001234A4639463046C0470130E7D0013560
:1012C000E368039A9B1A9D42F2DBE068039B984215
:1012D000B8BF184605E00B7884F8423004F14205A7
:1012E0008AE705B0BDE8F0837B1800088C18000879
:1012F00001F0FF01102A2BDB10F0070F08D010F8C7
:10130000013B013A8B422DD010F0070F42B3F6D1CA
:10131000F0B441EA012141EA014122F007047FF0E3
:1013200000070023F0E80256083C85EA010586EA3A
:10133000010685FA47F5A3FA87F586FA47F6A5FA76
:1013400087F68EB9EED1F0BC01F0FF0102F0070282
:1013500032B110F8013B013A83EA010313B1F8D12D
:101360000020704701387047002D06BF354603380E
:10137000073815F0010F07D1013015F4807F02BF47
:10138000013015F4C03F0130F0BC0138704700BF98
:1013900010B5431E0A44914204D011F8014B03F8E2
:1013A000014FF8E710BD884210B501EB020301D8E8
:1013B000421E0BE09842FBD28118D21AD34204D0CD
:1013C00013F8014D01F8014DF8E710BD994204D022
:1013D00011F8014B02F8014FF8E710BD30B50029B4
:1013E0003ED051F8042C0B1F1E49002AB8BF9B1891
:1013F0000A680C4612B95A600B6030BD9A420ED989
:1014000019685818824204BF106852685A6004BFB5
:1014100009181960236030BD994203D80A46516803
:101420000029F9D1146815199D420AD11B6823447B
:10143000D0188142136013D10868034413604B68CD
:101440000DE002D90C23036030BD18681C18A142BE
:1014500004BF0C684968596004BF001918605360E4
:1014600030BD00BF1801002070B5CD1C25F003056C
:1014700008350C2D38BF0C25002D064603DA0C2349
:101480003360002070BDA942F9D81F4B1C681A4672
:101490002146A1B10B685B1B0ED40B2B03D90B604B
:1014A000CC18CD501EE08C420DBF63684B68636062
:1014B000136018BF0C4615E00C464968E9E7134C69
:1014C00023681BB9304600F049F8206029463046B1
:1014D00000F044F8431CD2D0C41C24F00304A04202
:1014E0000AD1256004F10B00231D20F00700C31A68
:1014F00009D05A42E25070BD211A304600F02EF851
:101500000130EED1BBE770BD1801002014010020AE
:10151000F8B5074615460E4621B91146BDE8F84014
:10152000FFF7A2BF1AB9FFF759FF2846F8BD00F030
:1015300025F885420ED929463846FFF795FF04461F
:1015400050B131462A46FFF723FF31463846FFF7B0
:1015500045FF01E03046F8BD2046F8BD38B5064CE1
:101560000023054608462360FFF71CF9431C02D1FF
:10157000236803B12B6038BD1C01002051F8040C16
:101580000028BEBF091851F8043CC0180438704741
:101590002E2E2F73797374656D2F7372632F73748E
:1015A0006D333266342D73706C2F73746D33326605
:1015B0003478785F7077722E630000002E2E2F73C0
:1015C000797374656D2F7372632F73746D33326624
:1015D000342D73706C2F73746D3332663478785F8A
:1015E0007263632E630000002E2E2F73797374656F
:1015F0006D2F7372632F73746D333266342D737075
:101600006C2F73746D3332663478785F7274632E26
:101610006300000061626F727428292C206578696C
:1016200074696E672E2E2E002C2066756E637469A9
:101630006F6E3A2000000000617373657274696F09
:101640006E2022257322206661696C65643A2066EB
:10165000696C6520222573222C206C696E6520251B
:1016600064257325730A00006173736572745F707B
:101670006172616D2829206661696C65643A206633
:10168000696C6520222573222C206C696E652025EB
:10169000640A00006D61696E28617267633D2564AC
:1016A0002C20617267763D5B000000002C2000005A
:1016B00022257322000000005D293B0A0000000083
:1016C000537461636B206672616D653A0A000000B5
:1016D000205230203D2020253038580A00000000DC
:1016E000205231203D2020253038580A00000000CB
:1016F000205232203D2020253038580A00000000BA
:10170000205233203D2020253038580A00000000A8
:1017100020523132203D20253038580A0000000088
:10172000204C52203D2020253038580A000000006F
:10173000205043203D2020253038580A000000006A
:1017400020505352203D20253038580A0000000018
:101750004653522F4641523A0A0000002043465356
:1017600052203D2020253038580A0000204846539A
:1017700052203D2020253038580A0000204446538E
:1017800052203D2020253038580A00002041465381
:1017900052203D2020253038580A0000204D4D466B
:1017A0004152203D20253038580A00002042464151
:1017B00052203D2020253038580A00004D697363BF
:1017C0000A000000204C522F4558435F52455455A3
:1017D000524E3D20253038580A0000005B486172A7
:1017E000644661756C745D0A000000005B427573AD
:1017F0004661756C745D0A005B557361676546618F
:10180000756C745D0A000000426F6F7453746172EE
:1018100074757048616E646C657228292D3E424F64
:101820004F545F4A554D5045525F535441545553A0
:101830005F4641494C454400426F6F7450726F6778
:1018400072616D48616E646C657228292D3E424F4D
:101850004F545F4A554D5045525F53544154555370
:101860005F4641494C4544004300232D302B200066
:10187000686C4C006566674546470030313233344A
:1018800035363738394142434445460030313233EA
:0D18900034353637383961626364656600AF
:1018A0007856341290000020000000000000000074
:1018B00000000000010203040607080900BD01053D
:1018C0000000000000000000000000000000000018
:1018D0000000000000000000000000000000000008
:1018E0006818000800000000000000000000000070
:1018F00000000000000000000000000000000000E8
:1019000000000000000000000000000000000000D7
:1019100000000000000000000000000000000000C7
:081920002000002032547698EB
:040000050800019559
:00000001FF
